{"abi":[{"inputs":[{"internalType":"address","name":"_USDETHFeed","type":"address"}],"stateMutability":"nonpayable","type":"constructor","name":"constructor"},{"inputs":[{"internalType":"uint256","name":"","type":"uint256"}],"name":"Tippers","outputs":[{"internalType":"address","name":"","type":"address"}],"stateMutability":"view","type":"function"},{"inputs":[{"internalType":"address","name":"","type":"address"}],"name":"Tips","outputs":[{"internalType":"uint256","name":"","type":"uint256"}],"stateMutability":"view","type":"function"},{"inputs":[],"name":"TipsWallet","outputs":[{"internalType":"address payable","name":"","type":"address"}],"stateMutability":"view","type":"function"},{"inputs":[],"name":"getPrice","outputs":[{"internalType":"uint256","name":"","type":"uint256"}],"stateMutability":"view","type":"function"},{"inputs":[],"name":"sendTipForNFT","outputs":[],"stateMutability":"payable","type":"function"},{"inputs":[],"name":"withdraw","outputs":[],"stateMutability":"payable","type":"function"}],"bytecode":"608060405234801561001057600080fd5b5060405161063c38038061063c83398101604081905261002f9161006f565b6802b5e3af16b188000060015560028054336001600160a01b031991821617909155600080549091166001600160a01b039290921691909117905561009f565b60006020828403121561008157600080fd5b81516001600160a01b038116811461009857600080fd5b9392505050565b61058e806100ae6000396000f3fe6080604052600436106100555760003560e01c80633ccfd60b1461005a57806366d26373146100645780636ac0bc3f146100a15780638376b755146100dc57806398d5fdca146100e4578063cb09ec23146100f9575b600080fd5b610062610119565b005b34801561007057600080fd5b5061008461007f366004610402565b6101e2565b6040516001600160a01b0390911681526020015b60405180910390f35b3480156100ad57600080fd5b506100ce6100bc36600461041b565b60036020526000908152604090205481565b604051908152602001610098565b61006261020c565b3480156100f057600080fd5b506100ce6102db565b34801561010557600080fd5b50600254610084906001600160a01b031681565b6002546001600160a01b0316331461013057600080fd5b6002546040516001600160a01b03909116904780156108fc02916000818181858888f19350505050158015610169573d6000803e3d6000fd5b5060005b6004548110156101c15760006004828154811061018c5761018c61044b565b60009182526020808320909101546001600160a01b0316825260039052604081205550806101b981610477565b91505061016d565b5060408051600081526020810191829052516101df91600491610388565b50565b600481815481106101f257600080fd5b6000918252602090912001546001600160a01b0316905081565b6102146102db565b3410156102735760405162461bcd60e51b8152602060048201526024808201527f4e6f7420456e6f75676820666f72204e46542c20243530206d696e696d616c20604482015263032ba34160e51b606482015260840160405180910390fd5b3360009081526003602052604081208054349290610292908490610490565b9091555050600480546001810182556000919091527f8a35acfbc15ff81a39ae7d344fd709f28e8600b4aa8c65c6b64bfe7fe36bd19b0180546001600160a01b03191633179055565b6000806102e661030f565b905080600154670de0b6b3a76400006102ff91906104a8565b61030991906104c7565b91505090565b6000805460408051633fabe5a360e21b8152905183926001600160a01b03169163feaf968c9160048083019260a09291908290030181865afa158015610359573d6000803e3d6000fd5b505050506040513d601f19601f8201168201806040525081019061037d9190610508565b509195945050505050565b8280548282559060005260206000209081019282156103dd579160200282015b828111156103dd57825182546001600160a01b0319166001600160a01b039091161782556020909201916001909101906103a8565b506103e99291506103ed565b5090565b5b808211156103e957600081556001016103ee565b60006020828403121561041457600080fd5b5035919050565b60006020828403121561042d57600080fd5b81356001600160a01b038116811461044457600080fd5b9392505050565b634e487b7160e01b600052603260045260246000fd5b634e487b7160e01b600052601160045260246000fd5b60006001820161048957610489610461565b5060010190565b600082198211156104a3576104a3610461565b500190565b60008160001904831182151516156104c2576104c2610461565b500290565b6000826104e457634e487b7160e01b600052601260045260246000fd5b500490565b805169ffffffffffffffffffff8116811461050357600080fd5b919050565b600080600080600060a0868803121561052057600080fd5b610529866104e9565b945060208601519350604086015192506060860151915061054c608087016104e9565b9050929550929590935056fea2646970667358221220560315be63649fae99e81e9697e7c2b7ab6ea110e7718b8ad05b575ca0f9352064736f6c634300080e0033","bytecodeSha1":"cdea59e546e02d08041f4672226a2f21ef730ed7","compiler":{"evm_version":"istanbul","optimizer":{"enabled":true,"runs":200},"version":"0.8.14+commit.80d49f37"},"contractName":"TipsDemo","language":"Solidity","natspec":{"kind":"dev","methods":{},"version":1},"opcodes":"PUSH1 0x80 PUSH1 0x40 MSTORE PUSH1 0x4 CALLDATASIZE LT PUSH2 0x55 JUMPI PUSH1 0x0 CALLDATALOAD PUSH1 0xE0 SHR DUP1 PUSH4 0x3CCFD60B EQ PUSH2 0x5A JUMPI DUP1 PUSH4 0x66D26373 EQ PUSH2 0x64 JUMPI DUP1 PUSH4 0x6AC0BC3F EQ PUSH2 0xA1 JUMPI DUP1 PUSH4 0x8376B755 EQ PUSH2 0xDC JUMPI DUP1 PUSH4 0x98D5FDCA EQ PUSH2 0xE4 JUMPI DUP1 PUSH4 0xCB09EC23 EQ PUSH2 0xF9 JUMPI JUMPDEST PUSH1 0x0 DUP1 REVERT JUMPDEST PUSH2 0x62 PUSH2 0x119 JUMP JUMPDEST STOP JUMPDEST CALLVALUE DUP1 ISZERO PUSH2 0x70 JUMPI PUSH1 0x0 DUP1 REVERT JUMPDEST POP PUSH2 0x84 PUSH2 0x7F CALLDATASIZE PUSH1 0x4 PUSH2 0x402 JUMP JUMPDEST PUSH2 0x1E2 JUMP JUMPDEST PUSH1 0x40 MLOAD PUSH1 0x1 PUSH1 0x1 PUSH1 0xA0 SHL SUB SWAP1 SWAP2 AND DUP2 MSTORE PUSH1 0x20 ADD JUMPDEST PUSH1 0x40 MLOAD DUP1 SWAP2 SUB SWAP1 RETURN JUMPDEST CALLVALUE DUP1 ISZERO PUSH2 0xAD JUMPI PUSH1 0x0 DUP1 REVERT JUMPDEST POP PUSH2 0xCE PUSH2 0xBC CALLDATASIZE PUSH1 0x4 PUSH2 0x41B JUMP JUMPDEST PUSH1 0x3 PUSH1 0x20 MSTORE PUSH1 0x0 SWAP1 DUP2 MSTORE PUSH1 0x40 SWAP1 KECCAK256 SLOAD DUP2 JUMP JUMPDEST PUSH1 0x40 MLOAD SWAP1 DUP2 MSTORE PUSH1 0x20 ADD PUSH2 0x98 JUMP JUMPDEST PUSH2 0x62 PUSH2 0x20C JUMP JUMPDEST CALLVALUE DUP1 ISZERO PUSH2 0xF0 JUMPI PUSH1 0x0 DUP1 REVERT JUMPDEST POP PUSH2 0xCE PUSH2 0x2DB JUMP JUMPDEST CALLVALUE DUP1 ISZERO PUSH2 0x105 JUMPI PUSH1 0x0 DUP1 REVERT JUMPDEST POP PUSH1 0x2 SLOAD PUSH2 0x84 SWAP1 PUSH1 0x1 PUSH1 0x1 PUSH1 0xA0 SHL SUB AND DUP2 JUMP JUMPDEST PUSH1 0x2 SLOAD PUSH1 0x1 PUSH1 0x1 PUSH1 0xA0 SHL SUB AND CALLER EQ PUSH2 0x130 JUMPI PUSH1 0x0 DUP1 REVERT JUMPDEST PUSH1 0x2 SLOAD PUSH1 0x40 MLOAD PUSH1 0x1 PUSH1 0x1 PUSH1 0xA0 SHL SUB SWAP1 SWAP2 AND SWAP1 SELFBALANCE DUP1 ISZERO PUSH2 0x8FC MUL SWAP2 PUSH1 0x0 DUP2 DUP2 DUP2 DUP6 DUP9 DUP9 CALL SWAP4 POP POP POP POP ISZERO DUP1 ISZERO PUSH2 0x169 JUMPI RETURNDATASIZE PUSH1 0x0 DUP1 RETURNDATACOPY RETURNDATASIZE PUSH1 0x0 REVERT JUMPDEST POP PUSH1 0x0 JUMPDEST PUSH1 0x4 SLOAD DUP2 LT ISZERO PUSH2 0x1C1 JUMPI PUSH1 0x0 PUSH1 0x4 DUP3 DUP2 SLOAD DUP2 LT PUSH2 0x18C JUMPI PUSH2 0x18C PUSH2 0x44B JUMP JUMPDEST PUSH1 0x0 SWAP2 DUP3 MSTORE PUSH1 0x20 DUP1 DUP4 KECCAK256 SWAP1 SWAP2 ADD SLOAD PUSH1 0x1 PUSH1 0x1 PUSH1 0xA0 SHL SUB AND DUP3 MSTORE PUSH1 0x3 SWAP1 MSTORE PUSH1 0x40 DUP2 KECCAK256 SSTORE POP DUP1 PUSH2 0x1B9 DUP2 PUSH2 0x477 JUMP JUMPDEST SWAP2 POP POP PUSH2 0x16D JUMP JUMPDEST POP PUSH1 0x40 DUP1 MLOAD PUSH1 0x0 DUP2 MSTORE PUSH1 0x20 DUP2 ADD SWAP2 DUP3 SWAP1 MSTORE MLOAD PUSH2 0x1DF SWAP2 PUSH1 0x4 SWAP2 PUSH2 0x388 JUMP JUMPDEST POP JUMP JUMPDEST PUSH1 0x4 DUP2 DUP2 SLOAD DUP2 LT PUSH2 0x1F2 JUMPI PUSH1 0x0 DUP1 REVERT JUMPDEST PUSH1 0x0 SWAP2 DUP3 MSTORE PUSH1 0x20 SWAP1 SWAP2 KECCAK256 ADD SLOAD PUSH1 0x1 PUSH1 0x1 PUSH1 0xA0 SHL SUB AND SWAP1 POP DUP2 JUMP JUMPDEST PUSH2 0x214 PUSH2 0x2DB JUMP JUMPDEST CALLVALUE LT ISZERO PUSH2 0x273 JUMPI PUSH1 0x40 MLOAD PUSH3 0x461BCD PUSH1 0xE5 SHL DUP2 MSTORE PUSH1 0x20 PUSH1 0x4 DUP3 ADD MSTORE PUSH1 0x24 DUP1 DUP3 ADD MSTORE PUSH32 0x4E6F7420456E6F75676820666F72204E46542C20243530206D696E696D616C20 PUSH1 0x44 DUP3 ADD MSTORE PUSH4 0x32BA341 PUSH1 0xE5 SHL PUSH1 0x64 DUP3 ADD MSTORE PUSH1 0x84 ADD PUSH1 0x40 MLOAD DUP1 SWAP2 SUB SWAP1 REVERT JUMPDEST CALLER PUSH1 0x0 SWAP1 DUP2 MSTORE PUSH1 0x3 PUSH1 0x20 MSTORE PUSH1 0x40 DUP2 KECCAK256 DUP1 SLOAD CALLVALUE SWAP3 SWAP1 PUSH2 0x292 SWAP1 DUP5 SWAP1 PUSH2 0x490 JUMP JUMPDEST SWAP1 SWAP2 SSTORE POP POP PUSH1 0x4 DUP1 SLOAD PUSH1 0x1 DUP2 ADD DUP3 SSTORE PUSH1 0x0 SWAP2 SWAP1 SWAP2 MSTORE PUSH32 0x8A35ACFBC15FF81A39AE7D344FD709F28E8600B4AA8C65C6B64BFE7FE36BD19B ADD DUP1 SLOAD PUSH1 0x1 PUSH1 0x1 PUSH1 0xA0 SHL SUB NOT AND CALLER OR SWAP1 SSTORE JUMP JUMPDEST PUSH1 0x0 DUP1 PUSH2 0x2E6 PUSH2 0x30F JUMP JUMPDEST SWAP1 POP DUP1 PUSH1 0x1 SLOAD PUSH8 0xDE0B6B3A7640000 PUSH2 0x2FF SWAP2 SWAP1 PUSH2 0x4A8 JUMP JUMPDEST PUSH2 0x309 SWAP2 SWAP1 PUSH2 0x4C7 JUMP JUMPDEST SWAP2 POP POP SWAP1 JUMP JUMPDEST PUSH1 0x0 DUP1 SLOAD PUSH1 0x40 DUP1 MLOAD PUSH4 0x3FABE5A3 PUSH1 0xE2 SHL DUP2 MSTORE SWAP1 MLOAD DUP4 SWAP3 PUSH1 0x1 PUSH1 0x1 PUSH1 0xA0 SHL SUB AND SWAP2 PUSH4 0xFEAF968C SWAP2 PUSH1 0x4 DUP1 DUP4 ADD SWAP3 PUSH1 0xA0 SWAP3 SWAP2 SWAP1 DUP3 SWAP1 SUB ADD DUP2 DUP7 GAS STATICCALL ISZERO DUP1 ISZERO PUSH2 0x359 JUMPI RETURNDATASIZE PUSH1 0x0 DUP1 RETURNDATACOPY RETURNDATASIZE PUSH1 0x0 REVERT JUMPDEST POP POP POP POP PUSH1 0x40 MLOAD RETURNDATASIZE PUSH1 0x1F NOT PUSH1 0x1F DUP3 ADD AND DUP3 ADD DUP1 PUSH1 0x40 MSTORE POP DUP2 ADD SWAP1 PUSH2 0x37D SWAP2 SWAP1 PUSH2 0x508 JUMP JUMPDEST POP SWAP2 SWAP6 SWAP5 POP POP POP POP POP JUMP JUMPDEST DUP3 DUP1 SLOAD DUP3 DUP3 SSTORE SWAP1 PUSH1 0x0 MSTORE PUSH1 0x20 PUSH1 0x0 KECCAK256 SWAP1 DUP2 ADD SWAP3 DUP3 ISZERO PUSH2 0x3DD JUMPI SWAP2 PUSH1 0x20 MUL DUP3 ADD JUMPDEST DUP3 DUP2 GT ISZERO PUSH2 0x3DD JUMPI DUP3 MLOAD DUP3 SLOAD PUSH1 0x1 PUSH1 0x1 PUSH1 0xA0 SHL SUB NOT AND PUSH1 0x1 PUSH1 0x1 PUSH1 0xA0 SHL SUB SWAP1 SWAP2 AND OR DUP3 SSTORE PUSH1 0x20 SWAP1 SWAP3 ADD SWAP2 PUSH1 0x1 SWAP1 SWAP2 ADD SWAP1 PUSH2 0x3A8 JUMP JUMPDEST POP PUSH2 0x3E9 SWAP3 SWAP2 POP PUSH2 0x3ED JUMP JUMPDEST POP SWAP1 JUMP JUMPDEST JUMPDEST DUP1 DUP3 GT ISZERO PUSH2 0x3E9 JUMPI PUSH1 0x0 DUP2 SSTORE PUSH1 0x1 ADD PUSH2 0x3EE JUMP JUMPDEST PUSH1 0x0 PUSH1 0x20 DUP3 DUP5 SUB SLT ISZERO PUSH2 0x414 JUMPI PUSH1 0x0 DUP1 REVERT JUMPDEST POP CALLDATALOAD SWAP2 SWAP1 POP JUMP JUMPDEST PUSH1 0x0 PUSH1 0x20 DUP3 DUP5 SUB SLT ISZERO PUSH2 0x42D JUMPI PUSH1 0x0 DUP1 REVERT JUMPDEST DUP2 CALLDATALOAD PUSH1 0x1 PUSH1 0x1 PUSH1 0xA0 SHL SUB DUP2 AND DUP2 EQ PUSH2 0x444 JUMPI PUSH1 0x0 DUP1 REVERT JUMPDEST SWAP4 SWAP3 POP POP POP JUMP JUMPDEST PUSH4 0x4E487B71 PUSH1 0xE0 SHL PUSH1 0x0 MSTORE PUSH1 0x32 PUSH1 0x4 MSTORE PUSH1 0x24 PUSH1 0x0 REVERT JUMPDEST PUSH4 0x4E487B71 PUSH1 0xE0 SHL PUSH1 0x0 MSTORE PUSH1 0x11 PUSH1 0x4 MSTORE PUSH1 0x24 PUSH1 0x0 REVERT JUMPDEST PUSH1 0x0 PUSH1 0x1 DUP3 ADD PUSH2 0x489 JUMPI PUSH2 0x489 PUSH2 0x461 JUMP JUMPDEST POP PUSH1 0x1 ADD SWAP1 JUMP JUMPDEST PUSH1 0x0 DUP3 NOT DUP3 GT ISZERO PUSH2 0x4A3 JUMPI PUSH2 0x4A3 PUSH2 0x461 JUMP JUMPDEST POP ADD SWAP1 JUMP JUMPDEST PUSH1 0x0 DUP2 PUSH1 0x0 NOT DIV DUP4 GT DUP3 ISZERO ISZERO AND ISZERO PUSH2 0x4C2 JUMPI PUSH2 0x4C2 PUSH2 0x461 JUMP JUMPDEST POP MUL SWAP1 JUMP JUMPDEST PUSH1 0x0 DUP3 PUSH2 0x4E4 JUMPI PUSH4 0x4E487B71 PUSH1 0xE0 SHL PUSH1 0x0 MSTORE PUSH1 0x12 PUSH1 0x4 MSTORE PUSH1 0x24 PUSH1 0x0 REVERT JUMPDEST POP DIV SWAP1 JUMP JUMPDEST DUP1 MLOAD PUSH10 0xFFFFFFFFFFFFFFFFFFFF DUP2 AND DUP2 EQ PUSH2 0x503 JUMPI PUSH1 0x0 DUP1 REVERT JUMPDEST SWAP2 SWAP1 POP JUMP JUMPDEST PUSH1 0x0 DUP1 PUSH1 0x0 DUP1 PUSH1 0x0 PUSH1 0xA0 DUP7 DUP9 SUB SLT ISZERO PUSH2 0x520 JUMPI PUSH1 0x0 DUP1 REVERT JUMPDEST PUSH2 0x529 DUP7 PUSH2 0x4E9 JUMP JUMPDEST SWAP5 POP PUSH1 0x20 DUP7 ADD MLOAD SWAP4 POP PUSH1 0x40 DUP7 ADD MLOAD SWAP3 POP PUSH1 0x60 DUP7 ADD MLOAD SWAP2 POP PUSH2 0x54C PUSH1 0x80 DUP8 ADD PUSH2 0x4E9 JUMP JUMPDEST SWAP1 POP SWAP3 SWAP6 POP SWAP3 SWAP6 SWAP1 SWAP4 POP JUMP INVALID LOG2 PUSH5 0x6970667358 0x22 SLT KECCAK256 JUMP SUB ISZERO 0xBE PUSH4 0x649FAE99 0xE8 0x1E SWAP7 SWAP8 0xE7 0xC2 0xB7 0xAB PUSH15 0xA110E7718B8AD05B575CA0F9352064 PUSH20 0x6F6C634300080E00330000000000000000000000 ","sha1":"6a0b952c87f59d58a649da517dbf99d173197ce5","source":"// SPDX-License-Identifier: Apache License 2.0\n// â–ˆâ–ˆâ–ˆâ–ˆâ–ˆâ–ˆâ–ˆâ–ˆâ–ˆâ–ˆâ–ˆâ–ˆâ–ˆâ–ˆâ–ˆâ–ˆâ–ˆâ–ˆâ–ˆâ–ˆâ–ˆâ–ˆâ–ˆâ–ˆâ–ˆâ–ˆâ–ˆâ–ˆâ–ˆâ–ˆâ–ˆâ–ˆâ–ˆâ–ˆâ–ˆâ–ˆâ–ˆâ–ˆâ–ˆâ–ˆâ–ˆâ–ˆâ–ˆâ–ˆâ–ˆâ–ˆâ–ˆâ–ˆâ–ˆâ–ˆâ–ˆâ–ˆâ–ˆâ–ˆâ–ˆâ–ˆâ–ˆâ–ˆâ–ˆâ–ˆâ–ˆâ–ˆâ–ˆâ–ˆâ–ˆâ–ˆâ–ˆâ–ˆâ–ˆâ–ˆâ–ˆâ–ˆâ–ˆâ–ˆâ–ˆâ–ˆâ–ˆâ–ˆâ–ˆâ–ˆâ–ˆâ–ˆâ–ˆâ–ˆâ–ˆâ–ˆâ–ˆâ–ˆâ–ˆâ–ˆâ–ˆâ–ˆâ–ˆâ–ˆâ–ˆâ–ˆâ–ˆâ–ˆâ–ˆâ–ˆâ–ˆâ–ˆâ–ˆâ–ˆâ–ˆâ–ˆâ–ˆâ–ˆâ–ˆâ–ˆâ–ˆâ–ˆâ–ˆâ–ˆâ–ˆâ–ˆâ–ˆâ–ˆ\n// â–ˆâ–„â”€â–„â–„â”€â–ˆâ”€â–„â–„â”€â–ˆâ–„â”€â–„â–„â–€â–ˆâ–ˆâ–ˆâ–„â”€â–„â–„â–€â–ˆâ–„â”€â–„â–„â”€â–ˆâ–„â”€â–ˆâ”€â–„â–ˆâ–„â”€â–„â–„â”€â–ˆâ–„â”€â–„â–ˆâ–ˆâ–ˆâ”€â–„â–„â”€â–ˆâ–„â”€â–„â–„â”€â–ˆâ–„â”€â–€â–ˆâ–€â”€â–„â–ˆâ–„â”€â–„â–„â”€â–ˆâ–„â”€â–€â–ˆâ–„â”€â–„â–ˆâ”€â–„â”€â–„â”€â–ˆâ–ˆâ–ˆâ–„â”€â–ˆâ–€â–€â–€â–ˆâ”€â–„â–ˆâ”€â–„â–„â”€â–ˆâ–„â”€â–„â–„â–€â–ˆâ–„â”€â–ˆâ”€â–„â–ˆ\n// â–ˆâ–ˆâ”€â–„â–ˆâ–ˆâ–ˆâ”€â–ˆâ–ˆâ”€â–ˆâ–ˆâ”€â–„â”€â–„â–ˆâ–ˆâ–ˆâ–ˆâ”€â–ˆâ–ˆâ”€â–ˆâ–ˆâ”€â–„â–ˆâ–€â–ˆâ–ˆâ–„â–€â–„â–ˆâ–ˆâ–ˆâ”€â–„â–ˆâ–€â–ˆâ–ˆâ”€â–ˆâ–ˆâ–€â–ˆâ”€â–ˆâ–ˆâ”€â–ˆâ–ˆâ”€â–„â–„â–„â–ˆâ–ˆâ”€â–ˆâ–„â–ˆâ”€â–ˆâ–ˆâ–ˆâ”€â–„â–ˆâ–€â–ˆâ–ˆâ”€â–ˆâ–„â–€â”€â–ˆâ–ˆâ–ˆâ–ˆâ”€â–ˆâ–ˆâ–ˆâ–ˆâ–ˆâ–ˆâ”€â–ˆâ”€â–ˆâ”€â–ˆâ”€â–ˆâ–ˆâ”€â–ˆâ–ˆâ”€â–ˆâ–ˆâ”€â–„â”€â–„â–ˆâ–ˆâ”€â–„â–€â–ˆâ–ˆ\n// â–€â–„â–„â–„â–€â–€â–€â–„â–„â–„â–„â–€â–„â–„â–€â–„â–„â–€â–€â–€â–„â–„â–„â–„â–€â–€â–„â–„â–„â–„â–„â–€â–€â–€â–„â–€â–€â–€â–„â–„â–„â–„â–„â–€â–„â–„â–„â–„â–„â–€â–„â–„â–„â–„â–€â–„â–„â–„â–€â–€â–€â–„â–„â–„â–€â–„â–„â–„â–€â–„â–„â–„â–„â–„â–€â–„â–„â–„â–€â–€â–„â–„â–€â–€â–„â–„â–„â–€â–€â–€â–€â–€â–„â–„â–„â–€â–„â–„â–„â–€â–€â–„â–„â–„â–„â–€â–„â–„â–€â–„â–„â–€â–„â–„â–€â–„â–„â–€\n// â–ˆâ–ˆâ–ˆâ–ˆâ–ˆâ–ˆâ–ˆâ–ˆâ–ˆâ–ˆâ–ˆâ–ˆâ–ˆâ–ˆâ–ˆâ–ˆâ–ˆâ–ˆâ–ˆâ–ˆâ–ˆâ–ˆâ–ˆâ–ˆâ–ˆâ–ˆâ–ˆâ–ˆâ–ˆâ–ˆâ–ˆâ–ˆâ–ˆâ–ˆâ–ˆâ–ˆâ–ˆâ–ˆâ–ˆâ–ˆâ–ˆâ–ˆâ–ˆâ–ˆâ–ˆâ–ˆâ–ˆâ–ˆâ–ˆâ–ˆâ–ˆâ–ˆâ–ˆâ–ˆâ–ˆâ–ˆâ–ˆâ–ˆâ–ˆâ–ˆâ–ˆâ–ˆâ–ˆâ–ˆâ–ˆâ–ˆâ–ˆâ–ˆâ–ˆâ–ˆâ–ˆâ–ˆâ–ˆâ–ˆâ–ˆâ–ˆâ–ˆâ–ˆâ–ˆâ–ˆâ–ˆâ–ˆâ–ˆâ–ˆâ–ˆâ–ˆâ–ˆâ–ˆâ–ˆâ–ˆâ–ˆâ–ˆâ–ˆâ–ˆâ–ˆâ–ˆâ–ˆâ–ˆâ–ˆâ–ˆâ–ˆâ–ˆâ–ˆâ–ˆâ–ˆâ–ˆâ–ˆâ–ˆâ–ˆâ–ˆâ–ˆâ–ˆâ–ˆâ–ˆâ–ˆâ–ˆâ–ˆâ–ˆ\n// â–ˆâ”€â–„â–„â–„â”€â–ˆâ”€â–„â–„â”€â–ˆâ–„â”€â–€â–ˆâ–„â”€â–„â–ˆâ”€â–„â”€â–„â”€â–ˆâ–ˆâ–€â–„â”€â–ˆâ–ˆâ”€â–„â–„â–„â”€â–ˆâ”€â–„â”€â–„â”€â–ˆâ–ˆâ–ˆâ–„â”€â–€â–ˆâ–€â”€â–„â–ˆâ–„â”€â–„â–„â”€â–ˆâ–ˆâ–ˆâ–ˆâ–ˆâ–ˆâ–ˆâ–ˆâ–ˆâ–ˆâ–ˆâ–ˆâ–ˆâ–ˆâ–ˆâ–ˆâ–ˆâ–ˆâ–ˆâ–ˆâ–ˆâ–ˆâ–ˆâ–ˆâ–ˆâ–ˆâ–ˆâ–ˆâ–ˆâ–ˆâ–ˆâ–ˆâ–ˆâ–ˆâ–ˆâ–ˆâ–ˆâ–ˆâ–ˆâ–ˆâ–ˆâ–ˆâ–ˆâ–ˆâ–ˆâ–ˆâ–ˆâ–ˆâ–ˆâ–ˆâ–ˆâ–ˆâ–ˆâ–ˆâ–ˆâ–ˆâ–ˆâ–ˆâ–ˆ\n// â–ˆâ”€â–ˆâ–ˆâ–ˆâ–€â–ˆâ”€â–ˆâ–ˆâ”€â–ˆâ–ˆâ”€â–ˆâ–„â–€â”€â–ˆâ–ˆâ–ˆâ–ˆâ”€â–ˆâ–ˆâ–ˆâ–ˆâ”€â–€â”€â–ˆâ–ˆâ”€â–ˆâ–ˆâ–ˆâ–€â–ˆâ–ˆâ–ˆâ”€â–ˆâ–ˆâ–ˆâ–ˆâ–ˆâ–ˆâ”€â–ˆâ–„â–ˆâ”€â–ˆâ–ˆâ–ˆâ”€â–„â–ˆâ–€â–ˆâ–ˆâ–ˆâ–ˆâ–ˆâ–ˆâ–ˆâ–ˆâ–ˆâ–ˆâ–ˆâ–ˆâ–ˆâ–ˆâ–ˆâ–ˆâ–ˆâ–ˆâ–ˆ https://duncanpeach.com/ â–ˆâ–ˆâ–ˆâ–ˆâ–ˆâ–ˆâ–ˆâ–ˆâ–ˆâ–ˆâ–ˆâ–ˆâ–ˆâ–ˆ\n// â–€â–„â–„â–„â–„â–„â–€â–„â–„â–„â–„â–€â–„â–„â–„â–€â–€â–„â–„â–€â–€â–„â–„â–„â–€â–€â–„â–„â–€â–„â–„â–€â–„â–„â–„â–„â–„â–€â–€â–„â–„â–„â–€â–€â–€â–€â–„â–„â–„â–€â–„â–„â–„â–€â–„â–„â–„â–„â–„â–€â–ˆâ–ˆâ–ˆâ–ˆâ–ˆâ–ˆâ–ˆâ–ˆâ–ˆâ–ˆâ–ˆâ–ˆâ–ˆâ–ˆâ–ˆâ–ˆâ–ˆâ–ˆâ–ˆâ–ˆâ–ˆâ–ˆâ–ˆâ–ˆâ–ˆâ–ˆâ–ˆâ–ˆâ–ˆâ–ˆâ–ˆâ–ˆâ–ˆâ–ˆâ–ˆâ–ˆâ–ˆâ–ˆâ–ˆâ–ˆâ–ˆâ–ˆâ–ˆâ–ˆâ–ˆâ–ˆâ–ˆâ–ˆâ–ˆâ–ˆâ–ˆâ–ˆâ–ˆâ–ˆâ–ˆâ–ˆâ–ˆâ–ˆ\n\npragma solidity ^0.8.14;\n\nimport \"@chainlink/contracts/src/v0.8/interfaces/AggregatorV3Interface.sol\";\n\ncontract TipsDemo {\n    AggregatorV3Interface internal USDETHFeed;\n    uint256 internal minimalTipPriceinWei;\n    address payable public TipsWallet;\n\n    mapping(address => uint256) public Tips;\n    address[] public Tippers;\n\n    constructor(address _USDETHFeed) {\n        minimalTipPriceinWei = 50 * (10**18);\n        TipsWallet = payable(msg.sender);\n        USDETHFeed = AggregatorV3Interface(_USDETHFeed);\n    }\n\n    function sendTipForNFT() public payable {\n        require(\n            msg.value >= getPrice(),\n            \"Not Enough for NFT, $50 minimal eth \"\n        );\n        Tips[msg.sender] += msg.value;\n        Tippers.push(msg.sender);\n    }\n\n    function getEthPrice() internal view returns (uint256) {\n        (, int256 EthPrice, , , ) = USDETHFeed.latestRoundData();\n        return uint256(EthPrice);\n    }\n\n    function getPrice() public view returns (uint256) {\n        uint256 EthPrice = getEthPrice();\n        return (minimalTipPriceinWei * (10**18)) / EthPrice;\n    }\n\n    modifier onlyOwner() {\n        require(msg.sender == TipsWallet);\n        _;\n    }\n\n    function withdraw() public payable onlyOwner {\n        TipsWallet.transfer(address(this).balance);\n        for (\n            uint256 TipperIndex = 0;\n            TipperIndex < Tippers.length;\n            TipperIndex++\n        ) {\n            address Tipper = Tippers[TipperIndex];\n            Tips[Tipper] = 0;\n        }\n        Tippers = new address[](0);\n    }\n}\n","sourcePath":"contracts/CV.sol","type":"contract","deployment":{"address":"0x0e7AEb653F62E050493e8C877150Cdb3442fDeD8","chainid":"4","blockHeight":10851250}}