{"abi":[{"inputs":[{"internalType":"address","name":"_USDETHFeed","type":"address"}],"stateMutability":"nonpayable","type":"constructor","name":"constructor"},{"inputs":[{"internalType":"uint256","name":"","type":"uint256"}],"name":"Tippers","outputs":[{"internalType":"address","name":"","type":"address"}],"stateMutability":"view","type":"function"},{"inputs":[{"internalType":"address","name":"","type":"address"}],"name":"Tips","outputs":[{"internalType":"uint256","name":"","type":"uint256"}],"stateMutability":"view","type":"function"},{"inputs":[],"name":"TipsWallet","outputs":[{"internalType":"address payable","name":"","type":"address"}],"stateMutability":"view","type":"function"},{"inputs":[],"name":"sendTipForNFT","outputs":[],"stateMutability":"payable","type":"function"},{"inputs":[],"name":"withdraw","outputs":[],"stateMutability":"nonpayable","type":"function"}],"bytecode":"608060405234801561001057600080fd5b5060405161061d38038061061d83398101604081905261002f91610067565b603260015560028054336001600160a01b031991821617909155600080549091166001600160a01b0392909216919091179055610097565b60006020828403121561007957600080fd5b81516001600160a01b038116811461009057600080fd5b9392505050565b610577806100a66000396000f3fe60806040526004361061004a5760003560e01c80633ccfd60b1461004f57806366d26373146100665780636ac0bc3f146100a35780638376b755146100de578063cb09ec23146100e6575b600080fd5b34801561005b57600080fd5b50610064610106565b005b34801561007257600080fd5b506100866100813660046103eb565b6101cf565b6040516001600160a01b0390911681526020015b60405180910390f35b3480156100af57600080fd5b506100d06100be366004610404565b60036020526000908152604090205481565b60405190815260200161009a565b6100646101f9565b3480156100f257600080fd5b50600254610086906001600160a01b031681565b6002546001600160a01b0316331461011d57600080fd5b6002546040516001600160a01b03909116904780156108fc02916000818181858888f19350505050158015610156573d6000803e3d6000fd5b5060005b6004548110156101ae5760006004828154811061017957610179610434565b60009182526020808320909101546001600160a01b0316825260039052604081205550806101a681610460565b91505061015a565b5060408051600081526020810191829052516101cc91600491610371565b50565b600481815481106101df57600080fd5b6000918252602090912001546001600160a01b0316905081565b6102016102c8565b3410156102605760405162461bcd60e51b8152602060048201526024808201527f4e6f7420456e6f75676820666f72204e46542c20243530206d696e696d616c20604482015263032ba34160e51b606482015260840160405180910390fd5b336000908152600360205260408120805434929061027f908490610479565b9091555050600480546001810182556000919091527f8a35acfbc15ff81a39ae7d344fd709f28e8600b4aa8c65c6b64bfe7fe36bd19b0180546001600160a01b03191633179055565b6000806102d36102f8565b9050806001546305f5e1006102e89190610491565b6102f291906104b0565b91505090565b6000805460408051633fabe5a360e21b8152905183926001600160a01b03169163feaf968c9160048083019260a09291908290030181865afa158015610342573d6000803e3d6000fd5b505050506040513d601f19601f8201168201806040525081019061036691906104f1565b509195945050505050565b8280548282559060005260206000209081019282156103c6579160200282015b828111156103c657825182546001600160a01b0319166001600160a01b03909116178255602090920191600190910190610391565b506103d29291506103d6565b5090565b5b808211156103d257600081556001016103d7565b6000602082840312156103fd57600080fd5b5035919050565b60006020828403121561041657600080fd5b81356001600160a01b038116811461042d57600080fd5b9392505050565b634e487b7160e01b600052603260045260246000fd5b634e487b7160e01b600052601160045260246000fd5b6000600182016104725761047261044a565b5060010190565b6000821982111561048c5761048c61044a565b500190565b60008160001904831182151516156104ab576104ab61044a565b500290565b6000826104cd57634e487b7160e01b600052601260045260246000fd5b500490565b805169ffffffffffffffffffff811681146104ec57600080fd5b919050565b600080600080600060a0868803121561050957600080fd5b610512866104d2565b9450602086015193506040860151925060608601519150610535608087016104d2565b9050929550929590935056fea26469706673582212208005054fdaf8faab1af50043ec75f32bbe19c1e73922f2541bbb557b638ddaf864736f6c634300080e0033","bytecodeSha1":"addbedb0faa36bc2431c5fcadf6844fc03502451","compiler":{"evm_version":"istanbul","optimizer":{"enabled":true,"runs":200},"version":"0.8.14+commit.80d49f37"},"contractName":"TipsDemo","language":"Solidity","natspec":{"kind":"dev","methods":{},"version":1},"opcodes":"PUSH1 0x80 PUSH1 0x40 MSTORE PUSH1 0x4 CALLDATASIZE LT PUSH2 0x4A JUMPI PUSH1 0x0 CALLDATALOAD PUSH1 0xE0 SHR DUP1 PUSH4 0x3CCFD60B EQ PUSH2 0x4F JUMPI DUP1 PUSH4 0x66D26373 EQ PUSH2 0x66 JUMPI DUP1 PUSH4 0x6AC0BC3F EQ PUSH2 0xA3 JUMPI DUP1 PUSH4 0x8376B755 EQ PUSH2 0xDE JUMPI DUP1 PUSH4 0xCB09EC23 EQ PUSH2 0xE6 JUMPI JUMPDEST PUSH1 0x0 DUP1 REVERT JUMPDEST CALLVALUE DUP1 ISZERO PUSH2 0x5B JUMPI PUSH1 0x0 DUP1 REVERT JUMPDEST POP PUSH2 0x64 PUSH2 0x106 JUMP JUMPDEST STOP JUMPDEST CALLVALUE DUP1 ISZERO PUSH2 0x72 JUMPI PUSH1 0x0 DUP1 REVERT JUMPDEST POP PUSH2 0x86 PUSH2 0x81 CALLDATASIZE PUSH1 0x4 PUSH2 0x3EB JUMP JUMPDEST PUSH2 0x1CF JUMP JUMPDEST PUSH1 0x40 MLOAD PUSH1 0x1 PUSH1 0x1 PUSH1 0xA0 SHL SUB SWAP1 SWAP2 AND DUP2 MSTORE PUSH1 0x20 ADD JUMPDEST PUSH1 0x40 MLOAD DUP1 SWAP2 SUB SWAP1 RETURN JUMPDEST CALLVALUE DUP1 ISZERO PUSH2 0xAF JUMPI PUSH1 0x0 DUP1 REVERT JUMPDEST POP PUSH2 0xD0 PUSH2 0xBE CALLDATASIZE PUSH1 0x4 PUSH2 0x404 JUMP JUMPDEST PUSH1 0x3 PUSH1 0x20 MSTORE PUSH1 0x0 SWAP1 DUP2 MSTORE PUSH1 0x40 SWAP1 KECCAK256 SLOAD DUP2 JUMP JUMPDEST PUSH1 0x40 MLOAD SWAP1 DUP2 MSTORE PUSH1 0x20 ADD PUSH2 0x9A JUMP JUMPDEST PUSH2 0x64 PUSH2 0x1F9 JUMP JUMPDEST CALLVALUE DUP1 ISZERO PUSH2 0xF2 JUMPI PUSH1 0x0 DUP1 REVERT JUMPDEST POP PUSH1 0x2 SLOAD PUSH2 0x86 SWAP1 PUSH1 0x1 PUSH1 0x1 PUSH1 0xA0 SHL SUB AND DUP2 JUMP JUMPDEST PUSH1 0x2 SLOAD PUSH1 0x1 PUSH1 0x1 PUSH1 0xA0 SHL SUB AND CALLER EQ PUSH2 0x11D JUMPI PUSH1 0x0 DUP1 REVERT JUMPDEST PUSH1 0x2 SLOAD PUSH1 0x40 MLOAD PUSH1 0x1 PUSH1 0x1 PUSH1 0xA0 SHL SUB SWAP1 SWAP2 AND SWAP1 SELFBALANCE DUP1 ISZERO PUSH2 0x8FC MUL SWAP2 PUSH1 0x0 DUP2 DUP2 DUP2 DUP6 DUP9 DUP9 CALL SWAP4 POP POP POP POP ISZERO DUP1 ISZERO PUSH2 0x156 JUMPI RETURNDATASIZE PUSH1 0x0 DUP1 RETURNDATACOPY RETURNDATASIZE PUSH1 0x0 REVERT JUMPDEST POP PUSH1 0x0 JUMPDEST PUSH1 0x4 SLOAD DUP2 LT ISZERO PUSH2 0x1AE JUMPI PUSH1 0x0 PUSH1 0x4 DUP3 DUP2 SLOAD DUP2 LT PUSH2 0x179 JUMPI PUSH2 0x179 PUSH2 0x434 JUMP JUMPDEST PUSH1 0x0 SWAP2 DUP3 MSTORE PUSH1 0x20 DUP1 DUP4 KECCAK256 SWAP1 SWAP2 ADD SLOAD PUSH1 0x1 PUSH1 0x1 PUSH1 0xA0 SHL SUB AND DUP3 MSTORE PUSH1 0x3 SWAP1 MSTORE PUSH1 0x40 DUP2 KECCAK256 SSTORE POP DUP1 PUSH2 0x1A6 DUP2 PUSH2 0x460 JUMP JUMPDEST SWAP2 POP POP PUSH2 0x15A JUMP JUMPDEST POP PUSH1 0x40 DUP1 MLOAD PUSH1 0x0 DUP2 MSTORE PUSH1 0x20 DUP2 ADD SWAP2 DUP3 SWAP1 MSTORE MLOAD PUSH2 0x1CC SWAP2 PUSH1 0x4 SWAP2 PUSH2 0x371 JUMP JUMPDEST POP JUMP JUMPDEST PUSH1 0x4 DUP2 DUP2 SLOAD DUP2 LT PUSH2 0x1DF JUMPI PUSH1 0x0 DUP1 REVERT JUMPDEST PUSH1 0x0 SWAP2 DUP3 MSTORE PUSH1 0x20 SWAP1 SWAP2 KECCAK256 ADD SLOAD PUSH1 0x1 PUSH1 0x1 PUSH1 0xA0 SHL SUB AND SWAP1 POP DUP2 JUMP JUMPDEST PUSH2 0x201 PUSH2 0x2C8 JUMP JUMPDEST CALLVALUE LT ISZERO PUSH2 0x260 JUMPI PUSH1 0x40 MLOAD PUSH3 0x461BCD PUSH1 0xE5 SHL DUP2 MSTORE PUSH1 0x20 PUSH1 0x4 DUP3 ADD MSTORE PUSH1 0x24 DUP1 DUP3 ADD MSTORE PUSH32 0x4E6F7420456E6F75676820666F72204E46542C20243530206D696E696D616C20 PUSH1 0x44 DUP3 ADD MSTORE PUSH4 0x32BA341 PUSH1 0xE5 SHL PUSH1 0x64 DUP3 ADD MSTORE PUSH1 0x84 ADD PUSH1 0x40 MLOAD DUP1 SWAP2 SUB SWAP1 REVERT JUMPDEST CALLER PUSH1 0x0 SWAP1 DUP2 MSTORE PUSH1 0x3 PUSH1 0x20 MSTORE PUSH1 0x40 DUP2 KECCAK256 DUP1 SLOAD CALLVALUE SWAP3 SWAP1 PUSH2 0x27F SWAP1 DUP5 SWAP1 PUSH2 0x479 JUMP JUMPDEST SWAP1 SWAP2 SSTORE POP POP PUSH1 0x4 DUP1 SLOAD PUSH1 0x1 DUP2 ADD DUP3 SSTORE PUSH1 0x0 SWAP2 SWAP1 SWAP2 MSTORE PUSH32 0x8A35ACFBC15FF81A39AE7D344FD709F28E8600B4AA8C65C6B64BFE7FE36BD19B ADD DUP1 SLOAD PUSH1 0x1 PUSH1 0x1 PUSH1 0xA0 SHL SUB NOT AND CALLER OR SWAP1 SSTORE JUMP JUMPDEST PUSH1 0x0 DUP1 PUSH2 0x2D3 PUSH2 0x2F8 JUMP JUMPDEST SWAP1 POP DUP1 PUSH1 0x1 SLOAD PUSH4 0x5F5E100 PUSH2 0x2E8 SWAP2 SWAP1 PUSH2 0x491 JUMP JUMPDEST PUSH2 0x2F2 SWAP2 SWAP1 PUSH2 0x4B0 JUMP JUMPDEST SWAP2 POP POP SWAP1 JUMP JUMPDEST PUSH1 0x0 DUP1 SLOAD PUSH1 0x40 DUP1 MLOAD PUSH4 0x3FABE5A3 PUSH1 0xE2 SHL DUP2 MSTORE SWAP1 MLOAD DUP4 SWAP3 PUSH1 0x1 PUSH1 0x1 PUSH1 0xA0 SHL SUB AND SWAP2 PUSH4 0xFEAF968C SWAP2 PUSH1 0x4 DUP1 DUP4 ADD SWAP3 PUSH1 0xA0 SWAP3 SWAP2 SWAP1 DUP3 SWAP1 SUB ADD DUP2 DUP7 GAS STATICCALL ISZERO DUP1 ISZERO PUSH2 0x342 JUMPI RETURNDATASIZE PUSH1 0x0 DUP1 RETURNDATACOPY RETURNDATASIZE PUSH1 0x0 REVERT JUMPDEST POP POP POP POP PUSH1 0x40 MLOAD RETURNDATASIZE PUSH1 0x1F NOT PUSH1 0x1F DUP3 ADD AND DUP3 ADD DUP1 PUSH1 0x40 MSTORE POP DUP2 ADD SWAP1 PUSH2 0x366 SWAP2 SWAP1 PUSH2 0x4F1 JUMP JUMPDEST POP SWAP2 SWAP6 SWAP5 POP POP POP POP POP JUMP JUMPDEST DUP3 DUP1 SLOAD DUP3 DUP3 SSTORE SWAP1 PUSH1 0x0 MSTORE PUSH1 0x20 PUSH1 0x0 KECCAK256 SWAP1 DUP2 ADD SWAP3 DUP3 ISZERO PUSH2 0x3C6 JUMPI SWAP2 PUSH1 0x20 MUL DUP3 ADD JUMPDEST DUP3 DUP2 GT ISZERO PUSH2 0x3C6 JUMPI DUP3 MLOAD DUP3 SLOAD PUSH1 0x1 PUSH1 0x1 PUSH1 0xA0 SHL SUB NOT AND PUSH1 0x1 PUSH1 0x1 PUSH1 0xA0 SHL SUB SWAP1 SWAP2 AND OR DUP3 SSTORE PUSH1 0x20 SWAP1 SWAP3 ADD SWAP2 PUSH1 0x1 SWAP1 SWAP2 ADD SWAP1 PUSH2 0x391 JUMP JUMPDEST POP PUSH2 0x3D2 SWAP3 SWAP2 POP PUSH2 0x3D6 JUMP JUMPDEST POP SWAP1 JUMP JUMPDEST JUMPDEST DUP1 DUP3 GT ISZERO PUSH2 0x3D2 JUMPI PUSH1 0x0 DUP2 SSTORE PUSH1 0x1 ADD PUSH2 0x3D7 JUMP JUMPDEST PUSH1 0x0 PUSH1 0x20 DUP3 DUP5 SUB SLT ISZERO PUSH2 0x3FD JUMPI PUSH1 0x0 DUP1 REVERT JUMPDEST POP CALLDATALOAD SWAP2 SWAP1 POP JUMP JUMPDEST PUSH1 0x0 PUSH1 0x20 DUP3 DUP5 SUB SLT ISZERO PUSH2 0x416 JUMPI PUSH1 0x0 DUP1 REVERT JUMPDEST DUP2 CALLDATALOAD PUSH1 0x1 PUSH1 0x1 PUSH1 0xA0 SHL SUB DUP2 AND DUP2 EQ PUSH2 0x42D JUMPI PUSH1 0x0 DUP1 REVERT JUMPDEST SWAP4 SWAP3 POP POP POP JUMP JUMPDEST PUSH4 0x4E487B71 PUSH1 0xE0 SHL PUSH1 0x0 MSTORE PUSH1 0x32 PUSH1 0x4 MSTORE PUSH1 0x24 PUSH1 0x0 REVERT JUMPDEST PUSH4 0x4E487B71 PUSH1 0xE0 SHL PUSH1 0x0 MSTORE PUSH1 0x11 PUSH1 0x4 MSTORE PUSH1 0x24 PUSH1 0x0 REVERT JUMPDEST PUSH1 0x0 PUSH1 0x1 DUP3 ADD PUSH2 0x472 JUMPI PUSH2 0x472 PUSH2 0x44A JUMP JUMPDEST POP PUSH1 0x1 ADD SWAP1 JUMP JUMPDEST PUSH1 0x0 DUP3 NOT DUP3 GT ISZERO PUSH2 0x48C JUMPI PUSH2 0x48C PUSH2 0x44A JUMP JUMPDEST POP ADD SWAP1 JUMP JUMPDEST PUSH1 0x0 DUP2 PUSH1 0x0 NOT DIV DUP4 GT DUP3 ISZERO ISZERO AND ISZERO PUSH2 0x4AB JUMPI PUSH2 0x4AB PUSH2 0x44A JUMP JUMPDEST POP MUL SWAP1 JUMP JUMPDEST PUSH1 0x0 DUP3 PUSH2 0x4CD JUMPI PUSH4 0x4E487B71 PUSH1 0xE0 SHL PUSH1 0x0 MSTORE PUSH1 0x12 PUSH1 0x4 MSTORE PUSH1 0x24 PUSH1 0x0 REVERT JUMPDEST POP DIV SWAP1 JUMP JUMPDEST DUP1 MLOAD PUSH10 0xFFFFFFFFFFFFFFFFFFFF DUP2 AND DUP2 EQ PUSH2 0x4EC JUMPI PUSH1 0x0 DUP1 REVERT JUMPDEST SWAP2 SWAP1 POP JUMP JUMPDEST PUSH1 0x0 DUP1 PUSH1 0x0 DUP1 PUSH1 0x0 PUSH1 0xA0 DUP7 DUP9 SUB SLT ISZERO PUSH2 0x509 JUMPI PUSH1 0x0 DUP1 REVERT JUMPDEST PUSH2 0x512 DUP7 PUSH2 0x4D2 JUMP JUMPDEST SWAP5 POP PUSH1 0x20 DUP7 ADD MLOAD SWAP4 POP PUSH1 0x40 DUP7 ADD MLOAD SWAP3 POP PUSH1 0x60 DUP7 ADD MLOAD SWAP2 POP PUSH2 0x535 PUSH1 0x80 DUP8 ADD PUSH2 0x4D2 JUMP JUMPDEST SWAP1 POP SWAP3 SWAP6 POP SWAP3 SWAP6 SWAP1 SWAP4 POP JUMP INVALID LOG2 PUSH5 0x6970667358 0x22 SLT KECCAK256 DUP1 SDIV SDIV 0x4F 0xDA 0xF8 STATICCALL 0xAB BYTE CREATE2 STOP NUMBER 0xEC PUSH22 0xF32BBE19C1E73922F2541BBB557B638DDAF864736F6C PUSH4 0x4300080E STOP CALLER ","sha1":"99b86e0b3f8ffbce1e6d40006ab77678e0e3d5cc","source":"// SPDX-License-Identifier: Apache License 2.0\n// --______-----------_____-----------------_----------------------------------_------------------------_----\n// -|--____|---------|--__-\\---------------|-|--------------------------------|-|----------------------|-|---\n// -|-|__-___--_-__--|-|--|-|-_____---_____|-|-___--_-__--_-__-___---___-_-__-|-|_--__------_____--_-__|-|-__\n// -|--__/-_-\\|-'__|-|-|--|-|/-_-\\-\\-/-/-_-\\-|/-_-\\|-'_-\\|-'_-`-_-\\-/-_-\\-'_-\\|-__|-\\-\\-/\\-/-/-_-\\|-'__|-|/-/\n// -|-|-|-(_)-|-|----|-|__|-|--__/\\-V-/--__/-|-(_)-|-|_)-|-|-|-|-|-|--__/-|-|-|-|_---\\-V--V-/-(_)-|-|--|---<-\n// -|_|__\\___/|_|----|_____/-\\___|-\\_/-\\___|_|\\___/|-.__/|_|-|_|-|_|\\___|_|-|_|\\__|---\\_/\\_/-\\___/|_|--|_|\\_\\\n// --/-____|----------|-|-----------|-|------------|-|-------------------------------------------------------\n// -|-|-----___--_-__-|-|_-__-_--___|-|_---_-__-___|_|___----------------------------------------------------\n// -|-|----/-_-\\|-'_-\\|-__/-_`-|/-__|-__|-|-'_-`-_-\\-/-_-\\---------------------------------------------------\n// -|-|___|-(_)-|-|-|-|-||-(_|-|-(__|-|_--|-|-|-|-|-|--__/---------------------------------------------------\n// --\\_____\\___/|_|-|_|\\__\\__,_|\\___|\\__|-|_|-|_|-|_|\\___|---------------------- https://duncanpeach.com/ ---\n// ----------------------------------------------------------------------------------------------------------\n// ----------------------------------------------------------------------------------------------------------\n\npragma solidity ^0.8.14;\n\nimport \"@chainlink/contracts/src/v0.8/interfaces/AggregatorV3Interface.sol\";\n\ncontract TipsDemo {\n    AggregatorV3Interface internal USDETHFeed;\n    uint256 internal minimalTipPriceinWei;\n    address payable public TipsWallet;\n\n    mapping(address => uint256) public Tips;\n    address[] public Tippers;\n\n    constructor(address _USDETHFeed) {\n        minimalTipPriceinWei = 50;\n        TipsWallet = payable(msg.sender);\n        USDETHFeed = AggregatorV3Interface(_USDETHFeed);\n    }\n\n    function sendTipForNFT() public payable {\n        require(\n            msg.value >= getPrice(),\n            \"Not Enough for NFT, $50 minimal eth \"\n        );\n        Tips[msg.sender] += msg.value;\n        Tippers.push(msg.sender);\n    }\n\n    function getPrice() internal view returns (uint256) {\n        uint256 EthPrice = getEthPrice();\n        return (minimalTipPriceinWei * (10**8)) / EthPrice;\n    }\n\n    function getEthPrice() internal view returns (uint256) {\n        (, int256 EthPrice, , , ) = USDETHFeed.latestRoundData();\n        return uint256(EthPrice);\n    }\n\n    modifier onlyOwner() {\n        require(msg.sender == TipsWallet);\n        _;\n    }\n\n    function withdraw() public onlyOwner {\n        TipsWallet.transfer(address(this).balance);\n        for (\n            uint256 TipperIndex = 0;\n            TipperIndex < Tippers.length;\n            TipperIndex++\n        ) {\n            address Tipper = Tippers[TipperIndex];\n            Tips[Tipper] = 0;\n        }\n        Tippers = new address[](0);\n    }\n}\n","sourcePath":"contracts/CV.sol","type":"contract","deployment":{"address":"0x63cee1492d33bf935b7214656713e9c742f02c56","chainid":"4","blockHeight":10851530}}