{"bytecode":"608060405234801561001057600080fd5b5060405161068138038061068183398101604081905261002f91610067565b603260015560028054336001600160a01b031991821617909155600080549091166001600160a01b0392909216919091179055610097565b60006020828403121561007957600080fd5b81516001600160a01b038116811461009057600080fd5b9392505050565b6105db806100a66000396000f3fe60806040526004361061007b5760003560e01c80638376b7551161004e5780638376b7551461011757806398d5fdca1461011f578063cb09ec2314610134578063d06ea7041461015457600080fd5b80633ccfd60b1461008057806366d263731461008a57806367c9b017146100c75780636ac0bc3f146100ea575b600080fd5b610088610169565b005b34801561009657600080fd5b506100aa6100a536600461044f565b610232565b6040516001600160a01b0390911681526020015b60405180910390f35b3480156100d357600080fd5b506100dc61025c565b6040519081526020016100be565b3480156100f657600080fd5b506100dc610105366004610468565b60036020526000908152604090205481565b6100886102d5565b34801561012b57600080fd5b506100dc6103a4565b34801561014057600080fd5b506002546100aa906001600160a01b031681565b34801561016057600080fd5b506001546100dc565b6002546001600160a01b0316331461018057600080fd5b6002546040516001600160a01b03909116904780156108fc02916000818181858888f193505050501580156101b9573d6000803e3d6000fd5b5060005b600454811015610211576000600482815481106101dc576101dc610498565b60009182526020808320909101546001600160a01b031682526003905260408120555080610209816104c4565b9150506101bd565b50604080516000815260208101918290525161022f916004916103d5565b50565b6004818154811061024257600080fd5b6000918252602090912001546001600160a01b0316905081565b6000805460408051633fabe5a360e21b8152905183926001600160a01b03169163feaf968c9160048083019260a09291908290030181865afa1580156102a6573d6000803e3d6000fd5b505050506040513d601f19601f820116820180604052508101906102ca91906104fc565b509195945050505050565b6102dd6103a4565b34101561033c5760405162461bcd60e51b8152602060048201526024808201527f4e6f7420456e6f75676820666f72204e46542c20243530206d696e696d616c20604482015263032ba34160e51b606482015260840160405180910390fd5b336000908152600360205260408120805434929061035b90849061054c565b9091555050600480546001810182556000919091527f8a35acfbc15ff81a39ae7d344fd709f28e8600b4aa8c65c6b64bfe7fe36bd19b0180546001600160a01b03191633179055565b6000806103af61025c565b9050806001546402540be4006103c59190610564565b6103cf9190610583565b91505090565b82805482825590600052602060002090810192821561042a579160200282015b8281111561042a57825182546001600160a01b0319166001600160a01b039091161782556020909201916001909101906103f5565b5061043692915061043a565b5090565b5b80821115610436576000815560010161043b565b60006020828403121561046157600080fd5b5035919050565b60006020828403121561047a57600080fd5b81356001600160a01b038116811461049157600080fd5b9392505050565b634e487b7160e01b600052603260045260246000fd5b634e487b7160e01b600052601160045260246000fd5b6000600182016104d6576104d66104ae565b5060010190565b805169ffffffffffffffffffff811681146104f757600080fd5b919050565b600080600080600060a0868803121561051457600080fd5b61051d866104dd565b9450602086015193506040860151925060608601519150610540608087016104dd565b90509295509295909350565b6000821982111561055f5761055f6104ae565b500190565b600081600019048311821515161561057e5761057e6104ae565b500290565b6000826105a057634e487b7160e01b600052601260045260246000fd5b50049056fea2646970667358221220fde61438c997a1dcd06921a895fc4d895ab8ce8a76af73ad1dcc647936b676c964736f6c634300080e0033","bytecodeSha1":"4b1d9e74e898f2cd4957ce19da911308d5d9de2d","type":"contract","abi":[{"inputs":[{"internalType":"address","name":"_USDETHFeed","type":"address"}],"stateMutability":"nonpayable","type":"constructor","name":"constructor"},{"inputs":[{"internalType":"uint256","name":"","type":"uint256"}],"name":"Tippers","outputs":[{"internalType":"address","name":"","type":"address"}],"stateMutability":"view","type":"function"},{"inputs":[{"internalType":"address","name":"","type":"address"}],"name":"Tips","outputs":[{"internalType":"uint256","name":"","type":"uint256"}],"stateMutability":"view","type":"function"},{"inputs":[],"name":"TipsWallet","outputs":[{"internalType":"address payable","name":"","type":"address"}],"stateMutability":"view","type":"function"},{"inputs":[],"name":"getEthPrice","outputs":[{"internalType":"uint256","name":"","type":"uint256"}],"stateMutability":"view","type":"function"},{"inputs":[],"name":"getPrice","outputs":[{"internalType":"uint256","name":"","type":"uint256"}],"stateMutability":"view","type":"function"},{"inputs":[],"name":"minimalTipPrice","outputs":[{"internalType":"uint256","name":"","type":"uint256"}],"stateMutability":"view","type":"function"},{"inputs":[],"name":"sendTipForNFT","outputs":[],"stateMutability":"payable","type":"function"},{"inputs":[],"name":"withdraw","outputs":[],"stateMutability":"payable","type":"function"}],"compiler":{"version":"0.8.14+commit.80d49f37","evm_version":"istanbul","optimizer":{"enabled":true,"runs":200}},"contractName":"TipsDemo","language":"Solidity","natspec":{"methods":{},"kind":"dev","version":1},"opcodes":"PUSH1 0x80 PUSH1 0x40 MSTORE PUSH1 0x4 CALLDATASIZE LT PUSH2 0x7B JUMPI PUSH1 0x0 CALLDATALOAD PUSH1 0xE0 SHR DUP1 PUSH4 0x8376B755 GT PUSH2 0x4E JUMPI DUP1 PUSH4 0x8376B755 EQ PUSH2 0x117 JUMPI DUP1 PUSH4 0x98D5FDCA EQ PUSH2 0x11F JUMPI DUP1 PUSH4 0xCB09EC23 EQ PUSH2 0x134 JUMPI DUP1 PUSH4 0xD06EA704 EQ PUSH2 0x154 JUMPI PUSH1 0x0 DUP1 REVERT JUMPDEST DUP1 PUSH4 0x3CCFD60B EQ PUSH2 0x80 JUMPI DUP1 PUSH4 0x66D26373 EQ PUSH2 0x8A JUMPI DUP1 PUSH4 0x67C9B017 EQ PUSH2 0xC7 JUMPI DUP1 PUSH4 0x6AC0BC3F EQ PUSH2 0xEA JUMPI JUMPDEST PUSH1 0x0 DUP1 REVERT JUMPDEST PUSH2 0x88 PUSH2 0x169 JUMP JUMPDEST STOP JUMPDEST CALLVALUE DUP1 ISZERO PUSH2 0x96 JUMPI PUSH1 0x0 DUP1 REVERT JUMPDEST POP PUSH2 0xAA PUSH2 0xA5 CALLDATASIZE PUSH1 0x4 PUSH2 0x44F JUMP JUMPDEST PUSH2 0x232 JUMP JUMPDEST PUSH1 0x40 MLOAD PUSH1 0x1 PUSH1 0x1 PUSH1 0xA0 SHL SUB SWAP1 SWAP2 AND DUP2 MSTORE PUSH1 0x20 ADD JUMPDEST PUSH1 0x40 MLOAD DUP1 SWAP2 SUB SWAP1 RETURN JUMPDEST CALLVALUE DUP1 ISZERO PUSH2 0xD3 JUMPI PUSH1 0x0 DUP1 REVERT JUMPDEST POP PUSH2 0xDC PUSH2 0x25C JUMP JUMPDEST PUSH1 0x40 MLOAD SWAP1 DUP2 MSTORE PUSH1 0x20 ADD PUSH2 0xBE JUMP JUMPDEST CALLVALUE DUP1 ISZERO PUSH2 0xF6 JUMPI PUSH1 0x0 DUP1 REVERT JUMPDEST POP PUSH2 0xDC PUSH2 0x105 CALLDATASIZE PUSH1 0x4 PUSH2 0x468 JUMP JUMPDEST PUSH1 0x3 PUSH1 0x20 MSTORE PUSH1 0x0 SWAP1 DUP2 MSTORE PUSH1 0x40 SWAP1 KECCAK256 SLOAD DUP2 JUMP JUMPDEST PUSH2 0x88 PUSH2 0x2D5 JUMP JUMPDEST CALLVALUE DUP1 ISZERO PUSH2 0x12B JUMPI PUSH1 0x0 DUP1 REVERT JUMPDEST POP PUSH2 0xDC PUSH2 0x3A4 JUMP JUMPDEST CALLVALUE DUP1 ISZERO PUSH2 0x140 JUMPI PUSH1 0x0 DUP1 REVERT JUMPDEST POP PUSH1 0x2 SLOAD PUSH2 0xAA SWAP1 PUSH1 0x1 PUSH1 0x1 PUSH1 0xA0 SHL SUB AND DUP2 JUMP JUMPDEST CALLVALUE DUP1 ISZERO PUSH2 0x160 JUMPI PUSH1 0x0 DUP1 REVERT JUMPDEST POP PUSH1 0x1 SLOAD PUSH2 0xDC JUMP JUMPDEST PUSH1 0x2 SLOAD PUSH1 0x1 PUSH1 0x1 PUSH1 0xA0 SHL SUB AND CALLER EQ PUSH2 0x180 JUMPI PUSH1 0x0 DUP1 REVERT JUMPDEST PUSH1 0x2 SLOAD PUSH1 0x40 MLOAD PUSH1 0x1 PUSH1 0x1 PUSH1 0xA0 SHL SUB SWAP1 SWAP2 AND SWAP1 SELFBALANCE DUP1 ISZERO PUSH2 0x8FC MUL SWAP2 PUSH1 0x0 DUP2 DUP2 DUP2 DUP6 DUP9 DUP9 CALL SWAP4 POP POP POP POP ISZERO DUP1 ISZERO PUSH2 0x1B9 JUMPI RETURNDATASIZE PUSH1 0x0 DUP1 RETURNDATACOPY RETURNDATASIZE PUSH1 0x0 REVERT JUMPDEST POP PUSH1 0x0 JUMPDEST PUSH1 0x4 SLOAD DUP2 LT ISZERO PUSH2 0x211 JUMPI PUSH1 0x0 PUSH1 0x4 DUP3 DUP2 SLOAD DUP2 LT PUSH2 0x1DC JUMPI PUSH2 0x1DC PUSH2 0x498 JUMP JUMPDEST PUSH1 0x0 SWAP2 DUP3 MSTORE PUSH1 0x20 DUP1 DUP4 KECCAK256 SWAP1 SWAP2 ADD SLOAD PUSH1 0x1 PUSH1 0x1 PUSH1 0xA0 SHL SUB AND DUP3 MSTORE PUSH1 0x3 SWAP1 MSTORE PUSH1 0x40 DUP2 KECCAK256 SSTORE POP DUP1 PUSH2 0x209 DUP2 PUSH2 0x4C4 JUMP JUMPDEST SWAP2 POP POP PUSH2 0x1BD JUMP JUMPDEST POP PUSH1 0x40 DUP1 MLOAD PUSH1 0x0 DUP2 MSTORE PUSH1 0x20 DUP2 ADD SWAP2 DUP3 SWAP1 MSTORE MLOAD PUSH2 0x22F SWAP2 PUSH1 0x4 SWAP2 PUSH2 0x3D5 JUMP JUMPDEST POP JUMP JUMPDEST PUSH1 0x4 DUP2 DUP2 SLOAD DUP2 LT PUSH2 0x242 JUMPI PUSH1 0x0 DUP1 REVERT JUMPDEST PUSH1 0x0 SWAP2 DUP3 MSTORE PUSH1 0x20 SWAP1 SWAP2 KECCAK256 ADD SLOAD PUSH1 0x1 PUSH1 0x1 PUSH1 0xA0 SHL SUB AND SWAP1 POP DUP2 JUMP JUMPDEST PUSH1 0x0 DUP1 SLOAD PUSH1 0x40 DUP1 MLOAD PUSH4 0x3FABE5A3 PUSH1 0xE2 SHL DUP2 MSTORE SWAP1 MLOAD DUP4 SWAP3 PUSH1 0x1 PUSH1 0x1 PUSH1 0xA0 SHL SUB AND SWAP2 PUSH4 0xFEAF968C SWAP2 PUSH1 0x4 DUP1 DUP4 ADD SWAP3 PUSH1 0xA0 SWAP3 SWAP2 SWAP1 DUP3 SWAP1 SUB ADD DUP2 DUP7 GAS STATICCALL ISZERO DUP1 ISZERO PUSH2 0x2A6 JUMPI RETURNDATASIZE PUSH1 0x0 DUP1 RETURNDATACOPY RETURNDATASIZE PUSH1 0x0 REVERT JUMPDEST POP POP POP POP PUSH1 0x40 MLOAD RETURNDATASIZE PUSH1 0x1F NOT PUSH1 0x1F DUP3 ADD AND DUP3 ADD DUP1 PUSH1 0x40 MSTORE POP DUP2 ADD SWAP1 PUSH2 0x2CA SWAP2 SWAP1 PUSH2 0x4FC JUMP JUMPDEST POP SWAP2 SWAP6 SWAP5 POP POP POP POP POP JUMP JUMPDEST PUSH2 0x2DD PUSH2 0x3A4 JUMP JUMPDEST CALLVALUE LT ISZERO PUSH2 0x33C JUMPI PUSH1 0x40 MLOAD PUSH3 0x461BCD PUSH1 0xE5 SHL DUP2 MSTORE PUSH1 0x20 PUSH1 0x4 DUP3 ADD MSTORE PUSH1 0x24 DUP1 DUP3 ADD MSTORE PUSH32 0x4E6F7420456E6F75676820666F72204E46542C20243530206D696E696D616C20 PUSH1 0x44 DUP3 ADD MSTORE PUSH4 0x32BA341 PUSH1 0xE5 SHL PUSH1 0x64 DUP3 ADD MSTORE PUSH1 0x84 ADD PUSH1 0x40 MLOAD DUP1 SWAP2 SUB SWAP1 REVERT JUMPDEST CALLER PUSH1 0x0 SWAP1 DUP2 MSTORE PUSH1 0x3 PUSH1 0x20 MSTORE PUSH1 0x40 DUP2 KECCAK256 DUP1 SLOAD CALLVALUE SWAP3 SWAP1 PUSH2 0x35B SWAP1 DUP5 SWAP1 PUSH2 0x54C JUMP JUMPDEST SWAP1 SWAP2 SSTORE POP POP PUSH1 0x4 DUP1 SLOAD PUSH1 0x1 DUP2 ADD DUP3 SSTORE PUSH1 0x0 SWAP2 SWAP1 SWAP2 MSTORE PUSH32 0x8A35ACFBC15FF81A39AE7D344FD709F28E8600B4AA8C65C6B64BFE7FE36BD19B ADD DUP1 SLOAD PUSH1 0x1 PUSH1 0x1 PUSH1 0xA0 SHL SUB NOT AND CALLER OR SWAP1 SSTORE JUMP JUMPDEST PUSH1 0x0 DUP1 PUSH2 0x3AF PUSH2 0x25C JUMP JUMPDEST SWAP1 POP DUP1 PUSH1 0x1 SLOAD PUSH5 0x2540BE400 PUSH2 0x3C5 SWAP2 SWAP1 PUSH2 0x564 JUMP JUMPDEST PUSH2 0x3CF SWAP2 SWAP1 PUSH2 0x583 JUMP JUMPDEST SWAP2 POP POP SWAP1 JUMP JUMPDEST DUP3 DUP1 SLOAD DUP3 DUP3 SSTORE SWAP1 PUSH1 0x0 MSTORE PUSH1 0x20 PUSH1 0x0 KECCAK256 SWAP1 DUP2 ADD SWAP3 DUP3 ISZERO PUSH2 0x42A JUMPI SWAP2 PUSH1 0x20 MUL DUP3 ADD JUMPDEST DUP3 DUP2 GT ISZERO PUSH2 0x42A JUMPI DUP3 MLOAD DUP3 SLOAD PUSH1 0x1 PUSH1 0x1 PUSH1 0xA0 SHL SUB NOT AND PUSH1 0x1 PUSH1 0x1 PUSH1 0xA0 SHL SUB SWAP1 SWAP2 AND OR DUP3 SSTORE PUSH1 0x20 SWAP1 SWAP3 ADD SWAP2 PUSH1 0x1 SWAP1 SWAP2 ADD SWAP1 PUSH2 0x3F5 JUMP JUMPDEST POP PUSH2 0x436 SWAP3 SWAP2 POP PUSH2 0x43A JUMP JUMPDEST POP SWAP1 JUMP JUMPDEST JUMPDEST DUP1 DUP3 GT ISZERO PUSH2 0x436 JUMPI PUSH1 0x0 DUP2 SSTORE PUSH1 0x1 ADD PUSH2 0x43B JUMP JUMPDEST PUSH1 0x0 PUSH1 0x20 DUP3 DUP5 SUB SLT ISZERO PUSH2 0x461 JUMPI PUSH1 0x0 DUP1 REVERT JUMPDEST POP CALLDATALOAD SWAP2 SWAP1 POP JUMP JUMPDEST PUSH1 0x0 PUSH1 0x20 DUP3 DUP5 SUB SLT ISZERO PUSH2 0x47A JUMPI PUSH1 0x0 DUP1 REVERT JUMPDEST DUP2 CALLDATALOAD PUSH1 0x1 PUSH1 0x1 PUSH1 0xA0 SHL SUB DUP2 AND DUP2 EQ PUSH2 0x491 JUMPI PUSH1 0x0 DUP1 REVERT JUMPDEST SWAP4 SWAP3 POP POP POP JUMP JUMPDEST PUSH4 0x4E487B71 PUSH1 0xE0 SHL PUSH1 0x0 MSTORE PUSH1 0x32 PUSH1 0x4 MSTORE PUSH1 0x24 PUSH1 0x0 REVERT JUMPDEST PUSH4 0x4E487B71 PUSH1 0xE0 SHL PUSH1 0x0 MSTORE PUSH1 0x11 PUSH1 0x4 MSTORE PUSH1 0x24 PUSH1 0x0 REVERT JUMPDEST PUSH1 0x0 PUSH1 0x1 DUP3 ADD PUSH2 0x4D6 JUMPI PUSH2 0x4D6 PUSH2 0x4AE JUMP JUMPDEST POP PUSH1 0x1 ADD SWAP1 JUMP JUMPDEST DUP1 MLOAD PUSH10 0xFFFFFFFFFFFFFFFFFFFF DUP2 AND DUP2 EQ PUSH2 0x4F7 JUMPI PUSH1 0x0 DUP1 REVERT JUMPDEST SWAP2 SWAP1 POP JUMP JUMPDEST PUSH1 0x0 DUP1 PUSH1 0x0 DUP1 PUSH1 0x0 PUSH1 0xA0 DUP7 DUP9 SUB SLT ISZERO PUSH2 0x514 JUMPI PUSH1 0x0 DUP1 REVERT JUMPDEST PUSH2 0x51D DUP7 PUSH2 0x4DD JUMP JUMPDEST SWAP5 POP PUSH1 0x20 DUP7 ADD MLOAD SWAP4 POP PUSH1 0x40 DUP7 ADD MLOAD SWAP3 POP PUSH1 0x60 DUP7 ADD MLOAD SWAP2 POP PUSH2 0x540 PUSH1 0x80 DUP8 ADD PUSH2 0x4DD JUMP JUMPDEST SWAP1 POP SWAP3 SWAP6 POP SWAP3 SWAP6 SWAP1 SWAP4 POP JUMP JUMPDEST PUSH1 0x0 DUP3 NOT DUP3 GT ISZERO PUSH2 0x55F JUMPI PUSH2 0x55F PUSH2 0x4AE JUMP JUMPDEST POP ADD SWAP1 JUMP JUMPDEST PUSH1 0x0 DUP2 PUSH1 0x0 NOT DIV DUP4 GT DUP3 ISZERO ISZERO AND ISZERO PUSH2 0x57E JUMPI PUSH2 0x57E PUSH2 0x4AE JUMP JUMPDEST POP MUL SWAP1 JUMP JUMPDEST PUSH1 0x0 DUP3 PUSH2 0x5A0 JUMPI PUSH4 0x4E487B71 PUSH1 0xE0 SHL PUSH1 0x0 MSTORE PUSH1 0x12 PUSH1 0x4 MSTORE PUSH1 0x24 PUSH1 0x0 REVERT JUMPDEST POP DIV SWAP1 JUMP INVALID LOG2 PUSH5 0x6970667358 0x22 SLT KECCAK256 REVERT 0xE6 EQ CODESIZE 0xC9 SWAP8 LOG1 0xDC 0xD0 PUSH10 0x21A895FC4D895AB8CE8A PUSH23 0xAF73AD1DCC647936B676C964736F6C634300080E003300 ","sha1":"d66400024e0397eb9a53ddd16e790689ab52d36d","source":"// SPDX-License-Identifier: Apache License 2.0\n// --______-----------_____-----------------_----------------------------------_------------------------_----\n// -|--____|---------|--__-\\---------------|-|--------------------------------|-|----------------------|-|---\n// -|-|__-___--_-__--|-|--|-|-_____---_____|-|-___--_-__--_-__-___---___-_-__-|-|_--__------_____--_-__|-|-__\n// -|--__/-_-\\|-'__|-|-|--|-|/-_-\\-\\-/-/-_-\\-|/-_-\\|-'_-\\|-'_-`-_-\\-/-_-\\-'_-\\|-__|-\\-\\-/\\-/-/-_-\\|-'__|-|/-/\n// -|-|-|-(_)-|-|----|-|__|-|--__/\\-V-/--__/-|-(_)-|-|_)-|-|-|-|-|-|--__/-|-|-|-|_---\\-V--V-/-(_)-|-|--|---<-\n// -|_|__\\___/|_|----|_____/-\\___|-\\_/-\\___|_|\\___/|-.__/|_|-|_|-|_|\\___|_|-|_|\\__|---\\_/\\_/-\\___/|_|--|_|\\_\\\n// --/-____|----------|-|-----------|-|------------|-|-------------------------------------------------------\n// -|-|-----___--_-__-|-|_-__-_--___|-|_---_-__-___|_|___----------------------------------------------------\n// -|-|----/-_-\\|-'_-\\|-__/-_`-|/-__|-__|-|-'_-`-_-\\-/-_-\\---------------------------------------------------\n// -|-|___|-(_)-|-|-|-|-||-(_|-|-(__|-|_--|-|-|-|-|-|--__/---------------------------------------------------\n// --\\_____\\___/|_|-|_|\\__\\__,_|\\___|\\__|-|_|-|_|-|_|\\___|---------------------- https://duncanpeach.com/ ---\n// ----------------------------------------------------------------------------------------------------------\n// ----------------------------------------------------------------------------------------------------------\n\npragma solidity ^0.8.14;\n\nimport \"@chainlink/contracts/src/v0.8/interfaces/AggregatorV3Interface.sol\";\n\ncontract TipsDemo {\n    AggregatorV3Interface internal USDETHFeed;\n    uint256 internal minimalTipPriceinWei;\n    address payable public TipsWallet;\n\n    mapping(address => uint256) public Tips;\n    address[] public Tippers;\n\n    constructor(address _USDETHFeed) {\n        //100 0000000000 000000000000000000\n        minimalTipPriceinWei = 50;\n        TipsWallet = payable(msg.sender);\n        USDETHFeed = AggregatorV3Interface(_USDETHFeed);\n    }\n\n    function sendTipForNFT() public payable {\n        require(\n            msg.value >= getPrice(),\n            \"Not Enough for NFT, $50 minimal eth \"\n        );\n        Tips[msg.sender] += msg.value;\n        Tippers.push(msg.sender);\n    }\n\n    function minimalTipPrice() public view returns (uint256) {\n        return uint256(minimalTipPriceinWei);\n    }\n\n    function getEthPrice() public view returns (uint256) {\n        (, int256 EthPrice, , , ) = USDETHFeed.latestRoundData();\n        return uint256(EthPrice);\n    }\n\n    function getPrice() public view returns (uint256) {\n        uint256 EthPrice = getEthPrice();\n        return (minimalTipPriceinWei * (10**10)) / EthPrice;\n    }\n\n    modifier onlyOwner() {\n        require(msg.sender == TipsWallet);\n        _;\n    }\n\n    function withdraw() public payable onlyOwner {\n        TipsWallet.transfer(address(this).balance);\n        for (\n            uint256 TipperIndex = 0;\n            TipperIndex < Tippers.length;\n            TipperIndex++\n        ) {\n            address Tipper = Tippers[TipperIndex];\n            Tips[Tipper] = 0;\n        }\n        Tippers = new address[](0);\n    }\n}\n","sourcePath":"contracts/CV.sol","deployment":{"address":"0xd8Ec473d5CAa26881C0068E1c1e961fcfE85AD1A","chainid":"4","blockHeight":10851436}}